{
    "contractName": "OrderHandler",
    "abi": [
        {
            "inputs": [],
            "name": "liquidateUser",
            "outputs": [],
            "stateMutability": "nonpayable",
            "type": "function"
        },
        {
            "inputs": [
                {
                    "components": [
                        {
                            "internalType": "bool",
                            "name": "isLong",
                            "type": "bool"
                        },
                        {
                            "internalType": "address",
                            "name": "trader",
                            "type": "address"
                        },
                        {
                            "internalType": "uint256",
                            "name": "amount",
                            "type": "uint256"
                        },
                        {
                            "internalType": "address",
                            "name": "market",
                            "type": "address"
                        },
                        {
                            "internalType": "address",
                            "name": "collateralToken",
                            "type": "address"
                        },
                        {
                            "internalType": "uint256",
                            "name": "stopLoss",
                            "type": "uint256"
                        },
                        {
                            "internalType": "uint256",
                            "name": "takeProfit",
                            "type": "uint256"
                        },
                        {
                            "internalType": "uint256",
                            "name": "limitOrder",
                            "type": "uint256"
                        },
                        {
                            "internalType": "uint256",
                            "name": "leverage",
                            "type": "uint256"
                        }
                    ],
                    "internalType": "struct OrderInfo.PerpPosition",
                    "name": "perpPosition",
                    "type": "tuple"
                }
            ],
            "name": "longOrShort",
            "outputs": [],
            "stateMutability": "nonpayable",
            "type": "function"
        }
    ],
    "bytecode": "6080806040523460155761035d908161001a8239f35b5f80fdfe6080806040526004361015610012575f80fd5b5f3560e01c80637a977943146102f35763c3cdd16014610030575f80fd5b346101cf576101203660031901126101cf57610120810181811067ffffffffffffffff8211176102df5760405260043580151581036101cf578152602435906001600160a01b03821682036101cf57602081019182526044356040820181815290606435906001600160a01b03821682036101cf5760608401918252608435936001600160a01b03851685036101cf576080810194855260a43560a082015260c43560c082015260e43560e082015261010061010435910191818352151590816102d3575b501561028e57825190519081810291818304149015171561027a5790516040805163a1dc903160e01b81529291839060049082906001600160a01b03165afa9182156101db575f905f9361023f575b508110918215610235575b5050156101e6579051915190516040516323b872dd60e01b81526001600160a01b039283166004820152306024820152604481019190915291602091839160649183915f91165af180156101db576101a357005b6020813d6020116101d3575b816101bc60209383610305565b810103126101cf5751801515036101cf57005b5f80fd5b3d91506101af565b6040513d5f823e3d90fd5b60405162461bcd60e51b815260206004820152602160248201527f506f6f6c20646f6573206e6f74206861766520656e6f75676820746f6b656e736044820152602160f81b6064820152608490fd5b1190505f8061014f565b9250506040823d604011610272575b8161025b60409383610305565b810103126101cf5780602083519301519290610144565b3d915061024e565b634e487b7160e01b5f52601160045260245ffd5b60405162461bcd60e51b815260206004820152601d60248201527f416d6f756e74206f72206c6576657261676520697320696e76616c69640000006044820152606490fd5b9050606410155f6100f5565b634e487b7160e01b5f52604160045260245ffd5b346101cf575f3660031901126101cf57005b90601f8019910116810190811067ffffffffffffffff8211176102df5760405256fea2646970667358221220dacae71d8ddb1260bc8e192246e40becba223a17b5513d713d0ebbec3692d0f864736f6c634300081e0033",
    "sourcePath": "/home/administrator/Glass-Perp/solidity/src/OrderHandler.sol",
    "compiler": {
        "name": "solc",
        "version": "0.8.30+commit.73712a01"
    },
    "functionHashes": {
        "liquidateUser()": "7a977943",
        "longOrShort((bool,address,uint256,address,address,uint256,uint256,uint256,uint256))": "c3cdd160"
    },
    "gasEstimates": {
        "creation": {
            "codeDepositCost": "172200",
            "executionCost": "220",
            "totalCost": "172420"
        },
        "external": {
            "liquidateUser()": "130",
            "longOrShort((bool,address,uint256,address,address,uint256,uint256,uint256,uint256))": "infinite"
        }
    }
}